:020000040800F2
:1000000000000820552900085D2800085F28000826
:100010006128000863280008652800080000000027
:100020000000000000000000000000006728000839
:1000300069280008000000006B2800086D280008EF
:10004000A5290008A5290008A5290008A529000858
:10005000A529000875280008A5290008A529000879
:10006000A5290008A5290008A5290008A529000838
:10007000A5290008A5290008A5290008A529000828
:10008000A5290008A5290008A5290008A529000818
:10009000A5290008A5290008A5290008A529000808
:1000A000A5290008A5290008A5290008A5290008F8
:1000B000A5290008A5290008A5290008A5290008E8
:1000C000A5290008A5290008A5290008A5290008D8
:1000D000A5290008A5290008A5290008A5290008C8
:1000E000A5290008A5290008A5290008A5290008B8
:1000F000A5290008A5290008A5290008A5290008A8
:10010000A5290008A5290008A5290008A529000897
:10011000A5290008A5290008A5290008A529000887
:10012000A5290008A5290008A5290008A529000877
:10013000A5290008A5290008A5290008A529000867
:10014000A5290008A5290008A5290008A529000857
:10015000A5290008A5290008A5290008A529000847
:10016000A5290008A5290008A5290008A529000837
:10017000A5290008A5290008A529000800000000FD
:10018000A5290008A5290008A5290008A529000817
:10019000A5290008A5290008A5290008A529000807
:1001A000A5290008A5290008A5290008A5290008F7
:1001B000A5290008A5290008A5290008A5290008E7
:1001C000A5290008A5290008A5290008A5290008D7
:1001D000A5290008A5290008A5290008A5290008C7
:1001E000A5290008A5290008A5290008A5290008B7
:0801F000A5290008A52900085B
:1002000010B5054C237833B9044B13B10448AFF350
:1002100000800123237010BDDC01002000000000DD
:10022000384F000808B5034B1BB103490348AFF32F
:10023000008008BD00000000E0010020384F0008E9
:1002400053B94AB9002908BF00281CBF4FF0FF313D
:100250004FF0FF3000F072B9ADF1080C6DE904CE3B
:1002600000F006F8DDF804E0DDE9022304B0704791
:100270002DE9F047089E04468846002B4BD18A4260
:10028000154667D9B2FA82F24AB1C2F1200701FAE3
:1002900002F320FA07F7954047EA030894404FEA33
:1002A000154E230CB8FBFEF71FFA85FC0EFB1788D2
:1002B00043EA084307FB0CF1994209D9EB1807F10F
:1002C000FF3080F01B81994240F21881023F2B449D
:1002D0005B1AA4B2B3FBFEF00EFB103344EA0344F6
:1002E00000FB0CFCA44509D92C1900F1FF3380F068
:1002F0000781A44540F2048102382C4440EA0740BB
:10030000A4EB0C0400271EB1D4400023C6E900432F
:100310003946BDE8F0878B4209D9002E00F0EB800A
:100320000027C6E9000138463946BDE8F087B3FA30
:1003300083F7002F47D18B4202D3824200F2FA802A
:10034000841A61EB030301209846002EE0D0C6E931
:100350000048DDE702B9FFDEB2FA82F2002A40F07F
:100360008F80491B4FEA154E1FFA85F80127B1FB14
:10037000FEFC230C0EFB1C1143EA014308FB0CF1AD
:10038000994207D9EB180CF1FF3002D2994200F2E2
:10039000CD808446591AA3B2B1FBFEF00EFB1014B7
:1003A00043EA044408FB00F8A04507D92C1900F1E2
:1003B000FF3302D2A04500F2B6801846A4EB080431
:1003C00040EA0C409FE7C7F1200CBB4022FA0CFE2C
:1003D0004EEA030E01FA07F420FA0CF521FA0CF3A9
:1003E0004FEA1E482543B3FBF8F92C0C08FB1933E0
:1003F0001FFA8EFA44EA034309FB0AF49C4202FA0C
:1004000007F200FA07F10BD91EEB030309F1FF30E5
:1004100080F087809C4240F28480A9F102097344F5
:100420001B1BADB2B3FBF8F008FB103345EA0344E5
:1004300000FB0AFAA24508D91EEB040400F1FF33C1
:100440006BD2A24569D90238744440EA0940A0FB46
:100450000289A4EB0A044C45C2464B4654D351D002
:10046000002E69D0B1EB0A0564EB030404FA0CFC1E
:10047000FD40FC404CEA0505C6E90054002747E76B
:10048000C2F1200320FA03F7954001FA02F021FAA5
:1004900003F34FEA154E3843010CB3FBFEF71FFA86
:1004A00085F80EFB173341EA034107FB08F38B4243
:1004B00004FA02F407D9691807F1FF3C2FD28B42E6
:1004C0002DD9023F2944CB1A81B2B3FBFEF00EFBBB
:1004D000103341EA034100FB08F38B4207D9691846
:1004E00000F1FF3C17D28B4215D902382944C91AB2
:1004F00040EA07473BE73746304609E70746E7E665
:100500001846FBE64145ABD2B8EB020A69EB0E0296
:1005100001381346A4E76046E9E7184695E76746C1
:10052000D1E781467CE702382C4447E7ACF1020C66
:100530002B442FE7384608E73746E9E6704700BF07
:10054000034613F8012B002AFBD1181A0138704713
:1005500001F0FF01102A2BDB10F0070F08D010F874
:10056000013B013A8B422DD010F0070F42B3F6D178
:10057000F0B441EA012141EA014122F007047FF091
:1005800000070023F0E80256083C85EA010586EAE8
:10059000010685FA47F5A3FA87F586FA47F6A5FA24
:1005A00087F68EB9EED1F0BC01F0FF0102F0070230
:1005B00032B110F8013B013A83EA010313B1F8D1DB
:1005C0000020704701387047002D06BF35460338BC
:1005D000073815F0010F07D1013015F4807F02BFF5
:1005E000013015F4C03F0130F0BC0138704700BF46
:1005F00010B504460E4B18784FF47A73B3FBF0F342
:100600000C4A1068B0FBF3F000F084F868B90F2CC6
:1006100001D901200AE0002221464FF0FF3000F00E
:100620003BF8034B5C60002000E0012010BD00BFE0
:10063000000000200800002008B5032000F01AF890
:100640000020FFF7D5FF02F0B1F8002008BD000040
:10065000034A1168034B1B780B441360704700BFBB
:100660000802002000000020014B1868704700BFFE
:10067000080200200649CB6823F4E0631B041B0C2E
:10068000000200F4E0600343024A1A43CA60704764
:1006900000ED00E00000FA0530B4154BDB68C3F351
:1006A0000223C3F10704042C28BF04241D1D062DBA
:1006B00014D9033B4FF0FF3505FA04F421EA040195
:1006C000994005FA03F322EA03031943002807DBE4
:1006D0000901C9B2074B195430BC70470023E9E740
:1006E00000F00F000901C9B2034B1954F4E700BF31
:1006F00000ED00E000E400E014ED00E000F01F0277
:10070000400901239340024A42F82030704700BF5D
:1007100000E100E00138B0F1807F0AD2064B58605A
:10072000064AF02182F823100020986007221A6000
:1007300070470120704700BF10E000E000ED00E0CE
:1007400000230F2B00F2E280F0B482B039E00922DE
:1007500000E00022B2403A4302346D4E46F82420B5
:100760006C4A1468EA4302EA04064F6817F4803FB3
:1007700001D045EA0406674C2660646802EA040674
:100780004F6817F4003F01D045EA0406614C6660EB
:10079000A46802EA04064F6817F4801F01D045EAF6
:1007A00004065C4CA660E46822404E6816F4001F04
:1007B00001D045EA0402574CE26001330F2B00F2EE
:1007C000A28001229A400C6804EA0205AA42F4D1F0
:1007D0004C68122C18BF022C10D1DE08083650F8D5
:1007E00026C003F00704A7000F24BC402CEA040C29
:1007F0000C69BC4044EA0C0440F8264004685F00E1
:100800000326BE40F64306EA040C4C6804F00304D9
:10081000BC4044EA0C0404604C6804F1FF3C112C19
:1008200018BFBCF1010F01D9122C11D1846806EA5E
:10083000040CCC68BC4044EA0C048460446824EA9C
:10084000020C4C68C4F300129A4042EA0C02426067
:10085000C26816408A68BA403243C2604A6812F0E1
:10086000805FAAD02C4A546C44F480445464526C87
:1008700002F480420192019A9C08A61C244A52F874
:10088000267003F0030296000F22B24027EA020707
:10089000224A90423FF45DAF02F58062904222D03E
:1008A00002F58062904220D002F5806290421ED014
:1008B00002F5806290421CD002F5806290421AD00C
:1008C00002F58062904218D002F58062904216D004
:1008D00002F58062904214D002F5806290423FF4AB
:1008E00036AF0A2236E7012234E7022232E703223A
:1008F00030E704222EE705222CE706222AE707220A
:1009000028E7082226E702B0F0BC7047704700BF16
:1009100000380140003C0140003802400000024025
:1009200003689A6912F0020F01D000229A620368EC
:100930009A6912F0010F03D19A6942F001029A619B
:10094000704770B4039E05686868740D04F4806491
:1009500044F07F7444F4583444F47F7444F0030446
:1009600020EA0400C1F3090141EA0241194331437D
:100970000143696070BC704770B504460D46164669
:1009800003689B6913F0100F17D023689A6912F05F
:10099000200F14D1B5F1FF3FF7D025B1FFF764FE6A
:1009A000801BA842F1D9202384F84130002384F829
:1009B000423084F8403003201EE000201CE010226A
:1009C000DA6123682025DD612046FFF7A9FF226850
:1009D000536823F0FF7323F48B3323F4FF7323F066
:1009E000010353600423636484F84150002384F8B6
:1009F000423084F84030012070BD70B504460D4689
:100A0000164623689B6913F0020F1CD13246294613
:100A10002046FFF7B1FFC0B9B5F1FF3FF1D025B1D6
:100A2000FFF722FE801BA842EBD9636C43F0200342
:100A30006364202384F84130002384F8423084F832
:100A40004030032000E0002070BD0120FCE7F8B535
:100A500005460F4616461C462B689B6937EA03037A
:100A60000CBF01230023B34213D1B4F1FF3FF3D0F5
:100A70002CB1FFF7F9FD069BC01AA042ECD9202348
:100A800085F84130002385F8423085F84030032056
:100A900000E00020F8BD70B505460C4616462B68F0
:100AA0009B6913F0200F19D1324621462846FFF7E3
:100AB00063FFA8B924B1FFF7D7FD801BA042EED990
:100AC0006B6C43F020036B64202385F841300023D6
:100AD00085F8423085F84030032070BD0020FCE7E7
:100AE0000120FAE770B504460D46164623689B6957
:100AF00013F0040F3DD1324629462046FFF73CFF54
:100B00000146002837D123689A6912F0200F12D1CC
:100B100025B1FFF7A9FD801BA842E7D9636C43F01C
:100B200020036364202384F84130002384F840309C
:100B30000321084670BD9A6912F0040F02D0228D7D
:100B4000002AF6D12022DA6121684B6823F0FF7376
:100B500023F48B3323F4FF7323F001034B60002352
:100B6000636484F8412084F8423084F840300121E5
:100B7000DFE70021DDE70121DBE70000002857D097
:100B800010B5044690F84130002B41D0242384F85E
:100B900041302268136823F0010313606368226800
:100BA00023F0706313612268936823F40043936019
:100BB000E368012B31D0A368226843F404439360B7
:100BC000E368022B2FD0226851681A4B0B43536005
:100BD0002268D36823F40043D36023696269134316
:100BE000A169226843EA0123D360E369216A22688C
:100BF0000B4313602268136843F001031360002065
:100C00006064202384F84130206384F8420010BDE2
:100C100080F8403001F078FDB8E7A368226843F41B
:100C200000439360CCE723684FF400625A60CAE740
:100C300001207047008000022DE9F04383B090F856
:100C40004150EDB2202D40F0AD8090F84040012C95
:100C500000F0AD80984617460E4604464FF0010955
:100C600080F84090FFF700FD0546009019234A46A2
:100C70004FF400412046FFF7EAFE002840F099803B
:100C8000212384F84130102384F842300023636428
:100C90006762A4F82A806363638D9BB2FF2B0AD935
:100CA000FF222285474B00934FF080733146204648
:100CB000FFF747FE1DE0628D92B22285414B009303
:100CC0004FF00073D2B231462046FFF73AFE10E0F3
:100CD000636C042B6FD1012365E0628D92B2228593
:100CE000002300934FF00073D2B231462046FFF745
:100CF00028FE638D9BB2002B32D02A460A992046EB
:100D0000FFF77BFE0028E3D1636A5A1C6262226807
:100D10001B789362638D013B9BB26385238D013BFE
:100D20009BB22385002BE4D1638D9BB2002BE0D0D6
:100D300000950A9B002280212046FFF788FE0028AC
:100D40003BD1638D9BB2FF2BC7D9FF2222850023A5
:100D500000934FF0807331462046FFF7F2FDC8E75D
:100D60002A460A992046FFF796FE034620B1636C97
:100D7000042B24D1012316E022682021D1612068B0
:100D8000426822F0FF7222F48B3222F4FF7222F0CA
:100D90000102426084F84110002284F8422084F865
:100DA000402000E00223184603B0BDE8F083022390
:100DB000F9E70323F7E70323F5E70323F3E7032327
:100DC000F1E700BF002000802DE9F04383B090F8E8
:100DD0004150EDB2202D40F0AD8090F84040012C04
:100DE00000F0AD80984617460E4604464FF00109C4
:100DF00080F84090FFF738FC0546009019234A46DA
:100E00004FF400412046FFF722FE002840F0998071
:100E1000222384F84130102384F842300023636495
:100E20006762A4F82A806363638D9BB2FF2B0AD9A3
:100E3000FF222285474B00934FF0807331462046B6
:100E4000FFF77FFD1DE0628D92B22285414B00933A
:100E50004FF00073D2B231462046FFF772FD10E02A
:100E6000636C042B6FD1012365E0628D92B2228501
:100E7000002300934FF00073D2B231462046FFF7B3
:100E800060FD638D9BB2002B32D02A460A99204622
:100E9000FFF728FE0028E3D123685A6A636A591CC9
:100EA00061621A70238D013B9BB22385628D013AEA
:100EB00092B26285002BE4D1638D9BB2002BE0D00F
:100EC00000950A9B002280212046FFF7C0FD0028E4
:100ED0003BD1638D9BB2FF2BC7D9FF222285002314
:100EE00000934FF0807331462046FFF72AFDC8E794
:100EF0002A460A992046FFF7CEFD034620B1636CCF
:100F0000042B24D1012316E022682021D16120681E
:100F1000426822F0FF7222F48B3222F4FF7222F038
:100F20000102426084F84110002284F8422084F8D3
:100F3000402000E00223184603B0BDE8F0830223FE
:100F4000F9E70323F7E70323F5E70323F3E7032395
:100F5000F1E700BF0024008090F841007047406C2A
:100F600070470000002800F0DC8170B582B00446B4
:100F7000036813F0010F29D0A24B9B6803F00C0308
:100F8000042B1AD09F4B9B6803F00C03082B0FD047
:100F90006368B3F5803F40D0002B54D1994B1A6859
:100FA00022F480321A601A6822F480221A6039E032
:100FB000944B5B6813F4800FEAD0924B1B6813F4D8
:100FC000003F03D06368002B00F0AD81236813F06D
:100FD000020F75D08B4B9B6813F00C0F5ED0894BC2
:100FE0009B6803F00C03082B53D0E368002B00F040
:100FF0008A80844A136843F001031360FFF734FBCF
:101000000546804B1B6813F0020F73D1FFF72CFBD2
:10101000401B0228F5D9032088E17A4A136843F47B
:101020008033136063682BB3FFF71EFB0546754BD7
:101030001B6813F4003FC9D1FFF716FB401B64285F
:10104000F5D9032072E1B3F5A02F09D06D4B1A68D2
:1010500022F480321A601A6822F480221A60E1E7D2
:10106000684B1A6842F480221A601A6842F480328F
:101070001A60D7E7FFF7F8FA0546624B1B6813F4CE
:10108000003FA3D0FFF7F0FA401B6428F5D90320F6
:101090004CE15C4B5B6813F4800FA6D1594B1B6885
:1010A00013F0020F04D0E368012B01D001203DE1D1
:1010B000544A136823F0F803216943EAC10313601B
:1010C000236813F0080F46D0636983B34D4A536F0A
:1010D00043F001035367FFF7C7FA0546494B5B6FBF
:1010E00013F0020F37D1FFF7BFFA401B0228F5D9E2
:1010F00003201BE1434A136823F0F803216943EA04
:10110000C1031360DCE73F4A136823F00103136057
:10111000FFF7AAFA05463B4B1B6813F0020FCFD02E
:10112000FFF7A2FA401B0228F5D90320FEE0354A5A
:10113000536F23F001035367FFF796FA0546314BCF
:101140005B6F13F0020F06D0FFF78EFA401B0228E8
:10115000F5D90320EAE0236813F0040F7ED0294B71
:101160001B6C13F0805F1ED1264B1A6C42F080522C
:101170001A641B6C03F080530193019B0125224BE1
:101180001B6813F4807F10D0A368012B21D0002BA3
:101190003CD11C4B1A6F22F001021A671A6F22F021
:1011A00004021A671AE00025E9E7174A136843F4B6
:1011B00080731360FFF758FA0646134B1B6813F44D
:1011C000807FE1D1FFF750FA801B6428F5D9032016
:1011D000ACE00C4A136F43F001031367A3685BB3E1
:1011E000FFF742FA0646074B1B6F13F0020F34D18C
:1011F000FFF73AFA801B41F288339842F3D9032073
:1012000094E000BF0038024000700040052B09D078
:10121000484B1A6F22F001021A671A6F22F004027B
:101220001A67DBE7434B1A6F42F004021A671A6F22
:1012300042F001021A67D1E7FFF716FA06463D4B66
:101240001B6F13F0020F08D0FFF70EFA801B41F25C
:1012500088339842F3D9032068E0F5B9A369002BDD
:1012600063D0344A926802F00C02082A60D0022B44
:1012700019D0304A136823F080731360FFF7F4F934
:1012800004462C4B1B6813F0007F48D0FFF7ECF9A5
:10129000001B0228F5D9032048E0264A136C23F0EE
:1012A00080531364DAE7234A136823F080731360D2
:1012B000FFF7DAF905461F4B1B6813F0007F06D0D5
:1012C000FFF7D2F9401B0228F5D903202EE0E3698D
:1012D000226A1343626A43EA8213A26A5208013AFD
:1012E00043EA0243E26A43EA0263226B43EA02737F
:1012F000104A5360136843F080731360FFF7B4F92A
:1013000004460C4B1B6813F0007F06D1FFF7ACF9C5
:10131000001B0228F5D9032008E0002006E0002089
:1013200004E001207047012000E0002002B070BD01
:101330000120FBE700380240264B9B6803F00C03BA
:10134000042B44D0082B01D0234870472DE9F04BE3
:10135000204B5A6802F03F025B6813F4800F13D0F1
:101360001C4B5968C1F3881100231C48A1FB0001E4
:10137000FEF766FF174B5B68C3F3014301335B0065
:10138000B0FBF3F0BDE8F08B124B5B68C3F388133E
:101390001E4600275C010025E41A65EB0705A9013C
:1013A00041EA9461A001001B61EB0501CB0043EA17
:1013B0005073C400A01943EB07018B0243EA90531A
:1013C0008402204619460023FEF73AFFD2E703487D
:1013D000704700BF003802400024F40040787D01CF
:1013E000002800F0A28070B50446524B1B6803F041
:1013F0000F038B420CD24F4A136823F00F030B43A9
:101400001360136803F00F038B4201D0012070BDFD
:10141000236813F0020F17D013F0040F04D0464ACC
:10142000936843F4E0539360236813F0080F04D0EB
:10143000414A936843F4604393603F4A936823F0C2
:10144000F003A068034393600D46236813F0010F77
:1014500031D06368012B20D0022B25D0364A126888
:1014600012F0020F63D034498A6822F0030213435A
:101470008B60FFF7F9F806462F4B9B6803F00C03CF
:101480006268B3EB820F16D0FFF7EEF8801B41F2D3
:1014900088339842F0D90320B9E7274A126812F43A
:1014A000003FE0D10120B2E7234A126812F0007F2A
:1014B000D9D10120ABE71F4B1B6803F00F03AB42F0
:1014C0000CD91C4A136823F00F032B4313601368D5
:1014D00003F00F03AB4201D0012098E7236813F01B
:1014E000040F06D0144A936823F4E053E1680B43D9
:1014F0009360236813F0080F07D00F4A936823F412
:101500006043216943EAC1039360FFF715FF0A4B6B
:101510009B68C3F30313094AD35CD840084B186097
:101520000020FFF765F8002071E7012070470120D7
:101530006DE700BF003C024000380240504F0008F9
:1015400008000020014B1868704700BF0800002009
:1015500008B5FFF7F7FF044B9B68C3F38223034AE8
:10156000D35CD84008BD00BF00380240604F00087F
:1015700008B5FFF7E7FF044B9B68C3F34233034A08
:10158000D35CD84008BD00BF00380240604F00085F
:10159000F0B583B00446036813F0010F0CD0B54BCF
:1015A0009A6822F400029A609A68416B0A439A6032
:1015B000436BC3B1002600E00026236813F4002F1C
:1015C00015D0AC4AD2F88C3023F44013E16B0B43B6
:1015D000C2F88C30E36BB3F5801F06D0002B00F00F
:1015E0004581002504E00126E7E70126F6E700250E
:1015F000236813F4801F0FD09E4AD2F88C3023F456
:101600004003216C0B43C2F88C30236CB3F5800F80
:1016100000F02E8103B90125236813F0807F00D0EC
:10162000012613F0200F40F02781236813F0100FDC
:101630000CD0904BD3F88C2022F08072C3F88C2011
:10164000D3F88C20A16B0A43C3F88C20236813F4D1
:10165000804F08D0874AD2F8903023F44033616E2F
:101660000B43C2F89030236813F4004F08D0814A2E
:10167000D2F8903023F44023A16E0B43C2F890308F
:10168000236813F4803F08D07A4AD2F8903023F4CC
:101690004013E16E0B43C2F89030236813F4003F0F
:1016A00008D0744AD2F8903023F44003216F0B43E2
:1016B000C2F89030236813F0400F08D06D4AD2F87A
:1016C000903023F00303616C0B43C2F89030236821
:1016D00013F0800F08D0674AD2F8903023F00C0343
:1016E000A16C0B43C2F89030236813F4807F08D0BC
:1016F000604AD2F8903023F03003E16C0B43C2F81B
:101700009030236813F4007F08D05A4AD2F8903002
:1017100023F0C003216D0B43C2F89030236813F40B
:10172000806F08D0534AD2F8903023F44073616D33
:101730000B43C2F89030236813F4006F08D04D4A71
:10174000D2F8903023F44063A16D0B43C2F890307F
:10175000236813F4805F08D0464AD2F8903023F40F
:101760004053E16D0B43C2F89030236813F4005FDF
:1017700008D0404AD2F8903023F44043216E0B4306
:10178000C2F89030236813F4800F08D0394AD2F899
:10179000903023F08063A16F0B43C2F89030236830
:1017A00013F4001F0DD0334AD2F8903023F00063B9
:1017B000E16F0B43C2F89030E36FB3F1006F00F0BC
:1017C000C180236813F0080F00D0012513F4802F87
:1017D00008D0284AD2F8903023F04073616F0B4351
:1017E000C2F89030236813F4000F09D0214AD2F8D0
:1017F000903023F08053D4F880100B43C2F890301F
:10180000236813F0806F09D01A4AD2F8903023F081
:101810000053D4F884100B43C2F89030236813F0BF
:10182000006F09D0134AD2F88C3023F00073D4F83B
:1018300088100B43C2F88C30236813F0805F09D006
:101840000C4AD2F88C3023F08063D4F88C100B4310
:10185000C2F88C30002E77D12368B3F1007F73D0AB
:10186000002D40F00481002003B0F0BD0125BFE64B
:101870000126CFE600380240B74B1A6C42F0805286
:101880001A641B6C03F080530193019BB34A1368E5
:1018900043F480731360FEF7E7FE0746AF4B1B6807
:1018A00013F4807F06D1FEF7DFFEC01B6428F5D954
:1018B0000320D9E7A84B1B6F13F4407315D0226B9C
:1018C00002F440729A4210D0A34B1A6F22F4407275
:1018D000196F41F480311967196F21F4803119674C
:1018E0001A671B6F13F0010F12D1236B03F44072C0
:1018F000B2F5407F1DD0984A936823F4F8139360A3
:1019000095490B6F226BC2F30B0213430B678CE6F6
:10191000FEF7AAFE0746904B1B6F13F0020FE4D1AF
:10192000FEF7A2FEC01B41F288339842F3D9032090
:101930009AE78948826822F4F812894919400A43D3
:101940008260DDE701253CE7834A136823F080636A
:101950001360FEF789FE06467F4B1B6813F0006F8D
:1019600006D0FEF781FE801B6428F5D903207BE7B3
:10197000236813F0010F13D0636B8BB9764AD2F84A
:101980008430D2F88410606803F4403343EA801353
:1019900001F070610B43A16843EA0173C2F884301F
:1019A000236813F4002F03D0E26BB2F5801F06D03A
:1019B00013F4801F1ED0236CB3F5800F1AD1664A32
:1019C000D2F88430D2F88410606803F4403343EADC
:1019D0008013E06843EA006301F0E0410B43C2F882
:1019E0008430D2F88C3023F01F03616A01390B4335
:1019F000C2F88C30236813F0807F11D0564AD2F899
:101A00008400D2F88410666823691B0443EA8613B5
:101A100000F07060034301F0E0410B43C2F88430F2
:101A2000236813F0007F0DD0626823691B0443EA2A
:101A30008213E26843EA0263A26843EA0273464AF9
:101A4000C2F88430444A136843F080631360FEF7A1
:101A50000BFE0646404B1B6813F0006F7FF400AF8F
:101A6000FEF702FE801B6428F4D90320FCE63A4A04
:101A7000136823F080531360FEF7F6FD0546364BDE
:101A80001B6813F0005F06D0FEF7EEFD401B6428D4
:101A9000F5D90320E8E6236813F4002F01D0E26BA8
:101AA00022B113F4801F1DD0236CDBB92A4AD2F86F
:101AB0008830D2F88810606903F4403343EA801319
:101AC000A06943EA006301F0E0410B43C2F88830AB
:101AD000D2F88C3023F4F853A16A013943EA012388
:101AE000C2F88C30236813F4001F03D0E36FB3F106
:101AF000006F37D0236813F0080F19D0164AD2F8B8
:101B00008810D2F88830606903F4403343EA8013C8
:101B100001F070610B43E16943EA0173C2F8883058
:101B2000D2F88C3023F44033E16A0B43C2F88C3096
:101B3000094A136843F080531360FEF795FD04468D
:101B4000054B1B6813F0005F1FD1FEF78DFD001BD6
:101B50006428F5D9032087E6003802400070004071
:101B6000FFFCFF0F0A4AD2F88800D2F88810656996
:101B7000236A1B0443EA851300F07060034301F0FD
:101B8000E0410B43C2F88830B4E700206CE600BFA8
:101B9000003802402DE9F04105460F4616469846AA
:101BA000069C2B68DB6937EA03030CBF0123002383
:101BB000B3421DD1B4F1FF3FF3D02CB1FEF754FD79
:101BC000A0EB0800A042ECD32A68136823F4D0737A
:101BD00013602A68936823F001039360202385F83B
:101BE000693085F86A30002385F86830032000E00A
:101BF0000020BDE8F0812DE9F04182B01E4690F84A
:101C00006930DBB2202B52D104460D469046B2FA21
:101C100082F35B09002908BF0123002B4CD190F807
:101C20006830012B4AD0012380F868300023C36656
:101C3000212380F86930FEF717FD0746A4F850808D
:101C4000A4F8528003E02A7823689A620135B4F838
:101C500052309BB2DBB1B4F85230013B9BB2A4F8D6
:101C6000523000963B46002280212046FFF792FF2B
:101C700030BBA368B3F5805FE5D12369002BE2D1C7
:101C800035F8023B2268C3F308039362DFE700964E
:101C90003B46002240212046FFF77CFF034688B9DF
:101CA000202284F86920002284F8682000E00223C2
:101CB000184602B0BDE8F0810123F9E70223F7E7F7
:101CC0000323F5E70323F3E710B5044683680269AD
:101CD000134342691343C2691343016808689D4A6C
:101CE000024013430B602268536823F44053E168B9
:101CF0000B435360A369226A1A4321688B6823F45B
:101D0000306313438B602368934A934219D0934AFC
:101D100093422AD0924A934240D0924A934255D05D
:101D2000914A93426AD0914A934200F08280904A4D
:101D3000934200F099808F4A934200F0B0801022C5
:101D4000C9E002F59432D2F8902002F00302032A8F
:101D500003D8DFE802F0BF0604081022BBE002222D
:101D6000B9E00422B7E00822B5E002F5FA32D2F871
:101D7000902002F00C020C2A08D8DFE802F0BA0723
:101D800007070B070707090707070D001022A2E046
:101D90000222A0E004229EE008229CE002F5F83234
:101DA000D2F8902002F03002102A0DD005D9202A56
:101DB00008D0302A04D108228DE00AB900228AE036
:101DC000102288E0022286E0042284E002F5F63246
:101DD000D2F8902002F0C002402A0DD005D9802A06
:101DE00008D0C02A04D1082275E00AB9002272E0A6
:101DF000102270E002226EE004226CE002F5F43260
:101E0000D2F8902002F44072B2F5807F0FD007D94B
:101E1000B2F5007F09D0B2F5407F04D108225AE024
:101E20000AB9002257E0102255E0022253E00422B2
:101E300051E002F59232D2F8902002F44062B2F5FD
:101E4000806F0FD007D9B2F5006F09D0B2F5406F9F
:101E500004D108223FE00AB901223CE010223AE016
:101E6000022238E0042236E002F5E032D2F8902077
:101E700002F44052B2F5805F0FD007D9B2F5005F8F
:101E800009D0B2F5405F04D1082224E00AB900224B
:101E900021E010221FE002221DE004221BE002F5D7
:101EA000DE32D2F8902002F44042B2F5804F0FD0DB
:101EB00007D9B2F5004F09D0B2F5404F04D108223E
:101EC00009E00AB9002206E0102204E0022202E042
:101ED000042200E00122E169B1F5004F0BD0082A8D
:101EE00000F29B80DFE802F0616D799983999999FE
:101EF0008F000022EFE7082A54D8DFE802F0051728
:101F000022533F5353534A00FFF722FB62685308A2
:101F100003EB4003B3FBF2F39BB2002023F00F026C
:101F2000C3F3420313432268D36010BDFFF720FBC5
:101F30006268530803EB4003B3FBF2F39BB200204B
:101F4000ECE762680C4B03EB5203B3FBF2F39BB27A
:101F50000020E3E7F369FFEF001001400044004078
:101F600000480040004C0040005000400014014078
:101F700000780040007C00400048E801FFF7DCF9F1
:101F80006268530803EB4003B3FBF2F39BB20020FB
:101F9000C4E76268530803F58033B3FBF2F39BB2E6
:101FA0000020BBE701200023B8E7FFF7D1FA636800
:101FB00000EB5300B0FBF3F0236880B2D860002040
:101FC000B3E7FFF7D5FA636800EB5300B0FBF3F01B
:101FD000236880B2D8600020A7E76168104A02EB4E
:101FE0005102B2FBF1F292B2DA6000209DE7FFF7F6
:101FF000A3F9636800EB5300B0FBF3F0236880B2F1
:10200000D860002091E761684A0802F50042B2FBFF
:10201000F1F292B2DA60002087E7012085E700BF85
:102020000024F400436A13F0010F06D002685368DD
:1020300023F40033816A0B435360436A13F0020FA9
:1020400006D00268536823F48033C16A0B4353609F
:10205000436A13F0040F06D00268536823F4802308
:10206000016B0B435360436A13F0080F06D00268FC
:10207000536823F40043416B0B435360436A13F0EE
:10208000100F06D00268936823F48053816B0B43D2
:102090009360436A13F0200F06D00268936823F41C
:1020A0000053C16B0B439360436A13F0400F0AD097
:1020B0000268536823F48013016C0B435360036C74
:1020C000B3F5801F0BD0436A13F0800F06D002686F
:1020D000536823F40023816C0B43536070470268FC
:1020E000536823F4C003416C0B435360EBE710B516
:1020F00082B004460023C366FEF7B6FA226812686F
:1021000012F0080F09D1202384F8693084F86A306E
:10211000002084F8680002B010BD6FF07E43009389
:10212000034600224FF400112046FFF733FD00283C
:10213000E9D00320EFE778B310B5044690F8693092
:102140000BB3242384F869302268136823F0010359
:1021500013602046FFF7B8FD012813D0636ABBB9AE
:102160002268536823F4904353602268936823F0F5
:102170002A0393602268136843F00103136020462A
:10218000FFF7B5FF10BD80F8683000F031FBD8E7ED
:102190002046FFF747FFE3E70120704784B00F4B6D
:1021A0001A6B42F040021A631A6B02F0400201926D
:1021B000019A1A6B42F080021A631A6B02F08002D5
:1021C0000292029A1A6B42F004021A631B6B03F02C
:1021D00004030393039B04B0704700BF0038024020
:1021E00008B50948094B03604FF4165343600023B8
:1021F0008360C36003610C2242618361C361036237
:102200004362FFF798FF08BD100200200014014050
:1022100010B5B8B0342200212BA800F0EFFB002449
:1022200026942794289429942A949022214602A83F
:1022300000F0E4FB194B1A6C42F080521A641B6CDC
:1022400003F080530093009B154A136823F4404326
:1022500043F480431360136803F440430193019BEC
:1022600002232B9301232E9310232F9331942BA819
:10227000FEF778FE0F2326932794289429942A9416
:10228000214626A8FFF7ACF84FF400630293189498
:1022900002A8FFF77DF938B010BD00BF003802403A
:1022A0000070004008B50748074B03600123C36076
:1022B00000230361C361036240F28F638360FEF712
:1022C0005DFC08BD800200200054004070B582B063
:1022D00006460D46144602E00A48FEF740FE4FF45B
:1022E0007A73009323462A4671000648FEF7A4FC41
:1022F0000028F1D10348FEF72FFE2028FAD102B0C2
:1023000070BD00BF8002002070B584B0064615463F
:102310001C4604AB03F8011D01221946FFF7D6FF46
:1023200002E00A48FEF71BFE4FF47A73009323463F
:102330002A4671000548FEF747FD0028F1D1034801
:10234000FEF70AFE2028FAD104B070BD80020020FA
:1023500000B583B002A941F8040D4FF6FF730122C6
:102360000348FFF748FC019803B05DF804FB00BF89
:102370001002002000B587B00C4B1A6B42F004022B
:102380001A631B6B03F004030093009BC0230193AB
:10239000022302930122039204930823059301A9C7
:1023A0000348FEF7CDF907B05DF804FB00380240A2
:1023B0000008024000B583B001230DF1070275212A
:1023C0006820FFF7A1FF9DF80730682B05D005486E
:1023D00000F056FF03B05DF804FB034800F050FF27
:1023E000F8E700BFE4510008C451000800000000F5
:1023F0002DE9D04F2DED108B86B09FEDA59BB84CED
:102400009FEDA5EB8DED04EBB7EE00FB8DED02FB30
:102410008DED00EB53EC192B204600F031FF9FEDC2
:10242000A08B8DED04EB8DED02FB8DED00EB53ECFD
:10243000182B204600F024FF9FED9BAB8DED04EBA5
:102440008DED02FB8DED00EB53EC1A2B204600F0D6
:1024500017FF9FED97CB8DED04EB8DED02FB8DED1E
:1024600000EB53EC1C2B204600F00AFF9FED92DBA3
:102470008DED04EB8DED02FB8DED00EB53EC1D2B90
:10248000204600F0FDFE9FED8EBB8DED04EB8DED43
:1024900002FB8DED00EB53EC1B2B204600F0F0FE11
:1024A0000FF2242BDBE900AB8DED04EB8DED02FB8D
:1024B0008DED00EB52465B46204600F0E1FE0FF248
:1024C0001029D9E900898DED04EB8DED02FB8DED2E
:1024D00000EB42464B46204600F0D2FE7EA7D7E9ED
:1024E00000678DED04EB8DED02FB8DED00EB3246C8
:1024F0003B46204600F0C4FE8DED04EB8DED02EB73
:102500008DED00FB53EC192B204600F0B9FE8DED4C
:1025100004EB8DED02EB8DED00FB53EC182B204608
:1025200000F0AEFE8DED04EB8DED02EB8DED00FBCA
:1025300053EC1A2B204600F0A3FE8DED04EB8DED3D
:1025400002EB8DED00FB53EC1C2B204600F098FEB7
:102550008DED04EB8DED02EB8DED00FB53EC1D2BAF
:10256000204600F08DFE8DED04EB8DED02EB8DED40
:1025700000FB53EC1B2B204600F082FE8DED04EB9C
:102580008DED02EB8DED00FB52465B46204600F0E0
:1025900077FE8DED04EB8DED02EB8DED00FB4246F9
:1025A0004B46204600F06CFE8DED04EB8DED02EB0A
:1025B0008DED00FB32463B46204600F061FE8DED7E
:1025C00004FB8DED02EB8DED00EB53EC192B204657
:1025D00000F056FE8DED04FB8DED02EB8DED00EB72
:1025E00053EC182B204600F04BFE8DED04FB8DEDD7
:1025F00002EB8DED00EB53EC1A2B204600F040FE71
:102600008DED04FB8DED02EB8DED00EB53EC1C2BFF
:10261000204600F035FE8DED04FB8DED02EB8DEDD7
:1026200000EB53EC1D2B204600F02AFE8DED04FB41
:102630008DED02EB8DED00EB53EC1B2B204600F0F3
:102640001FFE8DED04FB8DED02EB8DED00EB524690
:102650005B46204600F014FE8DED04FB8DED02EB91
:102660008DED00EB42464B46204600F009FE8DED15
:1026700004FB8DED02EB8DED00EB32463B46204630
:1026800000F0FEFD06B0BDEC108BBDE8D08F00BFA2
:102690007B14AE47E17A843F000000000000000098
:1026A0007B14AE47E17A943FB81E85EB51B89E3F4C
:1026B0007B14AE47E17AA43F9A9999999999A93FD9
:1026C000B81E85EB51B8AE3FEC51B81E85EBB13F5B
:1026D0007B14AE47E17AB43F0AD7A3703D0AB73FF7
:1026E0000052000808B5FDF7A7FFFFF791FDFFF7BF
:1026F00055FDFFF73FFEFFF773FDFFF7D3FDFFF733
:1027000059FEFFF775FEFCE710B58AB0002305936C
:1027100006930793089309930268214B9A4201D0CC
:102720000AB010BD1F4C236B43F002032363236BDD
:1027300003F002030093009B236B43F00203236327
:10274000236B03F002030193019B236C43F40013FA
:102750002364236C03F400130293029B236B43F066
:1027600002032363236B03F002030393039B4FF4E1
:1027700040730593122306930123079303230893C1
:102780000423099305A90848FDF7DAFF236C43F4F5
:1027900000132364236C03F400130493049BBFE72A
:1027A00000540040003802400004024000B583B0ED
:1027B0000E4B1A6C42F080521A641A6C02F080526E
:1027C0000092009A5A6C42F480425A645B6C03F4A3
:1027D00080430193019B002211460520FDF75CFF19
:1027E0000520FDF78BFF03B05DF804FB00380240C5
:1027F00000B589B0002303930493059306930793D0
:102800000268144B9A4202D009B05DF804FB03F54C
:1028100092335A6C42F020025A645A6C02F0200241
:102820000192019A1A6B42F040021A631B6B03F08B
:1028300040030293029B4FF48443039302230493C7
:10284000032306930823079303A90348FDF778FFA2
:10285000DAE700BF00140140001802407047FEE7AD
:10286000FEE7FEE7FEE770477047704708B5FDF7E3
:10287000EFFE08BD704770B50D461646002404E013
:10288000AFF30080287001340135B442F8DB3046E4
:1028900070BD70B51646002405E04D1C0878FFF7A2
:1028A00057FD01342946B442F7DB304670BD0000C5
:1028B00008B503460B4A126842B10A4A106803443D
:1028C0006A46934206D8074A136008BD054A06497E
:1028D0001160F2E700F068F80C2303604FF0FF305E
:1028E000F3E700BFF8010020D00200204FF0FF30D6
:1028F00070474FF400534B60002070470120704731
:102900000020704710B40F4AD2F8883043F47003A7
:10291000C2F888300C4B196841F0010119600020A1
:1029200098601C6809492140196009495960196873
:1029300021F480211960D8604FF0006393605DF846
:10294000044B704700ED00E000380240FFFFF6FE48
:1029500010300024DFF834D0002103E00C4B5B582A
:10296000435004310B480C4B42189A42F6D30B4AA1
:1029700002E0002342F8043B094B9A42F9D3FFF7E7
:10298000C1FF00F017F8FFF7ADFE70470000082008
:10299000E054000800000020DC010020DC010020E1
:1029A000D0020020FEE70000014B1868704700BF0E
:1029B0000C00002070B50D4E0D4CA41BA41000257A
:1029C000A54209D10B4E0C4C02F0B6FAA41BA41080
:1029D0000025A54205D170BD56F825309847013530
:1029E000EEE756F8253098470135F2E7D85400084D
:1029F000D8540008D8540008DC54000802440346A8
:102A0000934200D1704703F8011BF9E7F0B52DEDB3
:102A1000028BB0EE408B85B017460D9D0C9E18EED4
:102A2000902A25F02005002AB6BF2D220022B1EE03
:102A3000408B462D0C461A7004D0452D00D1013430
:102A4000022100E0032103AB019302AB0093224675
:102A50003346B0EE480B00F077FD472D01D1FB0760
:102A60001ED5462D00EB04030CD10278302A07D185
:102A7000B5EE408BF1EE10FA1CBFC4F101043460D6
:102A800032681344B5EE408BF1EE10FA07D03021D6
:102A9000039A9A4204D2541C03941170F8E70393EA
:102AA000039B0E9A1B1A136005B0BDEC028BF0BDA0
:102AB000F7B500290446BABF49422D232B23092923
:102AC00004F8022B437020DD0DF107031F460A2690
:102AD00091FBF6F506FB15113031092D03F8011CA9
:102AE00003F1FF32294609DC3031023B02F8011CB8
:102AF000BB42224604D3101A03B0F0BD1346E7E7E9
:102B000013F8012B04F8012BF2E7302319448370EA
:102B1000021DC170EFE700002DE9F04F8DB00C46AB
:102B200016461F46DDF85880054601F0D3FBD0F865
:102B300000B05846FDF704FD00230A93D8F8003092
:102B40000590073323F0070303F1080194F8189068
:102B50002268C8F80010D3E90001C4E912019FED12
:102B6000A27B94ED120BB0EEC06BB4EE476BF1EEAE
:102B700010FA24DDB5EEC00BF1EE10FA02D52D23CC
:102B800084F843309A499B4BB9F1470F8CBF884674
:102B9000984622F004020323236122604FF0000ACA
:102BA000009733460BAA2146284600F0E1F9013090
:102BB00040F089804FF0FF300DB0BDE8F08FB4EEEB
:102BC000400BF1EE10FA02D78B498C4BDCE76168C1
:102BD0004B1C42F480620AAB09A83BD1062161601C
:102BE0004FF0000CCDE9023CCDE900090DF12303C3
:102BF000226061682846FFF709FF09F0DF03472BD1
:102C0000804609D1099BD81C02DB6268934247DDEC
:102C1000A9F102095FFA89F9B9F1650F099924D878
:102C200001394A4604F150000991FFF741FF0A9A21
:102C30001318012A8246236102DC2268D10701D5DC
:102C4000013323619DF82330002BA9D02D2384F874
:102C50004330A5E7B9F1670F00F07881B9F1470F6C
:102C6000BED10029BCD10121B9E7B9F1660F19D154
:102C7000002963680CDD216113B92268D20702D5EF
:102C800001330B442361099BA3654FF0000AD9E788
:102C900013B92268D00701D50233F3E70123F1E726
:102CA0004FF06709DDE90932934205DB22682361B1
:102CB000D107E8D50133E5E7002BD4BFC3F1020308
:102CC00001231344DEE723685A0507D423694246EB
:102CD00031462846B84701302AD16BE7B9F1650F74
:102CE00040F2DE8094ED127BB5EE407BF1EE10FAFF
:102CF00033D10123424A31462846B84701303FF4D8
:102D000059AFDDE909239A4202DB2368D8070FD5C2
:102D1000059B5A4631462846B84701303FF44AAF32
:102D20004FF0000804F11A090A9B013B434509DCF6
:102D300023689B0700F10581E0680B9B9842B8BFB0
:102D4000184639E701234A4631462846B84701303C
:102D50003FF430AF08F10108E6E7099B002B2BDCBC
:102D60000123274A31462846B84701303FF422AFB5
:102D7000099B23B90A9B13B92368D907D8D5059BAA
:102D80005A4631462846B84701303FF413AF4FF05A
:102D9000000904F11A0A099B5B424B4501DC0A9BBE
:102DA00095E70123524631462846B84701303FF4A3
:102DB00001AF09F10109EEE70A9AA36D9A42A8BF93
:102DC0001A46002A914607DD1346314642462846F8
:102DD000B84701303FF4EEAE04F11A034FF0000A99
:102DE00029EAE979079317E0FFFFFFFFFFFFEF7F75
:102DF0001852000814520008205200081C52000803
:102E0000245200080123079A31462846B84701306A
:102E10003FF4D0AE0AF1010AA36D0693A3EB0903B8
:102E20005345EFDC069B9844DDE909239A4215DB04
:102E30002368DA0712D40A9B069A09999A1AA3EB17
:102E4000010A9245A8BF9246BAF1000F0EDC4FF07E
:102E500000082AEAEA7A04F11A0919E0059B5A46A1
:102E600031462846B8470130E5D1A3E653464246ED
:102E700031462846B8470130E9D19BE601234A464E
:102E800031462846B84701303FF494AE08F10108B6
:102E9000DDE909239B1AA3EB0A034345EEDC47E770
:102EA0000A9A012A01DCDB0739D501234246314663
:102EB0002846B84701303FF47DAE059B5A4631465F
:102EC0002846B847013008F101083FF473AE94ED8D
:102ED000127B0A9BB5EE407BF1EE10FA03F1FF3353
:102EE00018D0424631462846B84701300ED161E637
:102EF00001234A4631462846B84701303FF45AAECE
:102F000008F101080A9B013B4345F1DC534604F1FB
:102F10005002DDE64FF0000804F11A09F2E7012340
:102F2000DFE701234A4631462846B84701303FF4DF
:102F300041AE08F10108E3680B9A9B1A4345F0DCA7
:102F4000FAE64FF0000804F11909F4E700293FF40C
:102F50008AAE4FF0000CCDE9023CCDE900092260B9
:102F60000DF123032846FFF751FD80464AE600BFD6
:102F70002DE9F04791461F468A680B69DDF82080ED
:102F80009342B8BF1346C9F8003091F84320064673
:102F90000C4612B10133C9F800302368990642BFCC
:102FA000D9F800300233C9F80030256815F006055D
:102FB00007D104F1190AE368D9F800209B1AAB4243
:102FC00028DC94F843302268003318BF01239206AE
:102FD0002DD404F1430239463046C047013020D099
:102FE0002368E568D9F8002003F00603042B08BF26
:102FF000AD1AA36822690CBF25EAE5750025934246
:10300000C4BF9B1AED184FF000091A344D451AD170
:10301000002008E00123524639463046C0470130BF
:1030200003D14FF0FF30BDE8F0870135C3E7E11869
:103030005A1C302081F84300224494F8451082F84D
:1030400043100233C5E70123224639463046C047C4
:103050000130E6D009F10109D8E700002DE9F0437D
:1030600001F1430C0C46097E85B06E2917460646D1
:1030700098460C9A00F0B38022D8632936D00AD83B
:10308000002900F0B980582900F0838004F142053E
:1030900084F8421032E0642901D06929F6D1206811
:1030A0001368050603F104012AD51B681160002B83
:1030B00003DA2D225B4284F843206F480A2239E06C
:1030C000732900F09D8008D86F2920D07029DDD1A8
:1030D000236843F02003236003E0752917D0782983
:1030E000D4D1782384F84530644855E01368191D1D
:1030F0001B68116004F1420584F8423001238CE022
:103100001B68116010F0400F18BF1BB2CFE71368A7
:103110002568181D1060280601D51B6802E06806A6
:10312000FBD51B8854486F2914BF0A2208220021AE
:1031300084F843106568A560002DC0F29580216871
:1031400021F004012160002B3DD1002D40F08E8044
:103150006546082A0BD12368DB0708D52369626816
:103160009A42DEBF302305F8013C05F1FF35ACEB98
:1031700005032361CDF800803B4603AA2146304673
:10318000FFF7F6FE01304DD14FF0FF3005B0BDE83E
:10319000F083394884F84510136821681D1D1B68A9
:1031A00015600A060BD5CA0744BF41F02001216013
:1031B0001BB9226822F0200222601022B7E74D06D8
:1031C00048BF9BB2EFE76546B3FBF2F102FB113358
:1031D000C35C05F8013D0B460029F5D1B9E713683A
:1031E00025686169181D106028061B6801D51960E3
:1031F00002E06A06FBD51980002323616546B9E722
:103200001368191D11601D68626800212846FDF7CA
:103210009FF908B1401B606063682361002384F854
:103220004330A7E723692A4639463046C047013074
:10323000AAD023689B0713D4E068039B9842B8BFC9
:103240001846A3E701234A4639463046C0470130B5
:103250009AD00135E368039A9B1AAB42F2DCEBE7A4
:10326000002504F11909F5E7002BACD1037884F8A7
:10327000423004F142056CE726520008375200083C
:103280000FB40A4B13B51C6824B1A36913B92046C7
:1032900000F096FF05AB049AA1680193204601F067
:1032A00059FC02B0BDE8104004B070470C0000208B
:1032B000F8B50E461446054618B183690BB900F0FF
:1032C0007FFF214B9C422AD16C68A369A360A3892C
:1032D0001A072ED5236963B323692068C01A63696E
:1032E000F6B28342374604DC2146284600F0FEFE53
:1032F00028BBA368013BA36023685A1C22601E7090
:1033000063690130834204D0A389DB0719D50A2EF3
:1033100017D12146284600F0E9FE90B10FE00B4B93
:103320009C4201D1AC68D0E7094B9C4208BFEC68D5
:10333000CBE72146284600F00DF80028CCD04FF00E
:10334000FF373846F8BD00BF785200089852000891
:1033500058520008324B70B51D6806460C4625B120
:10336000AB6913B9284600F02BFF2E4B9C420FD1BE
:103370006C68B4F90C309AB215072CD4D00611D46D
:103380000922326043F04003A3814FF0FF303EE05A
:10339000254B9C4201D1AC68EBE7244B9C4208BF13
:1033A000EC68E6E7510712D5616B41B104F14403C3
:1033B000994202D0304601F0FBFA00236363A389EF
:1033C00023F02403A3810023636023692360A3897E
:1033D00043F00803A38123694BB9A38903F4207345
:1033E000B3F5007F03D02146304600F0A5FFA28947
:1033F00012F001030CD00023A36063695B42A36158
:10340000236953B9B4F90C3013F08000BAD170BD00
:10341000920758BF6369A360F2E70020F7E700BF97
:103420000C000020785200089852000858520008FA
:103430002DE9F74F03690C69A3428046C0F28280F0
:10344000013C01F114074FEA840C00F1140657F80F
:10345000245056F8240006EB0C03013507EB0C0949
:103460000193B0FBF5F595B34FF0000A3846B64628
:10347000D34650F8042B93B205FB03A34FEA134A3B
:103480009BB2ABEB0303120CDEF800B005FB02A20B
:1034900013FA8BF34FEA124A1FFA82FBDEF8002080
:1034A000CBEB124202EB23429BB243EA024381453B
:1034B0004FEA224B4EF8043BDBD256F80C3033B9BE
:1034C000019B043B9E421A4630D3C8F81040404648
:1034D00001F09AF9002825DB013530464FF0000C49
:1034E00057F8042BD0F800E093B2ACEB0303120CB6
:1034F00013FA8EF3C2EB1E4202EB23429BB243EA65
:103500000243B9454FEA224C40F8043BE8D256F852
:10351000242006EB84032AB9043B9E421A460BD3AF
:10352000C8F81040284603B0BDE8F08F1268043B8D
:10353000002ACAD1013CC5E71268043B002AEFD13A
:10354000013CEAE70020EEE72DE9F04F57EC106B65
:1035500095B0456A089104460A921193DDF8788087
:10356000CDE902673DB9102000F026FF6062C0E996
:1035700001550560C560636A196851B15A684A60AF
:10358000012393408B60204600F05DFF636A0022B8
:103590001A603B1EB9BF23F0004303930023C8F811
:1035A0000030039DAC4BBCBF0122C8F80020AB43E8
:1035B0001BD1119A42F20F731360029B23B9C5F31A
:1035C0001305002D00F0DD841F9B53B9A34B20E0B1
:1035D000A34B049308331F9A1360049815B0BDE8F9
:1035E000F08F9E4B04930333F5E79DED027BB5EE20
:1035F000407BF1EE10FA8DED047B0CD1119A012382
:1036000013601F9B002B00F0B984964B1F9A136028
:10361000013B0493E1E713A912AA9DED040B204698
:1036200001F069F9C5F30A5601901299002E46D0AF
:103630000598C0F31300DDE9042340F07F5343F401
:103640004013A6F2FF3A002707EE90AA43EC162B90
:10365000B8EEE75B9FED7A4BB7EE087B36EE477B23
:103660009FED796BA7EE046BB0EE467B9FED786B18
:10367000A5EE067BFDEEC76BB5EEC07BF1EE10FA52
:1036800016EE90BA08D5B8EEE66BB4EE476BF1EEE5
:1036900010FA18BF0BF1FF3BBBF1160F34D8724B79
:1036A00003EBCB0393ED007B9DED026BB4EEC67B89
:1036B000F1EE10FA01DD0BF1FF3B002325E0139B37
:1036C00001EB030A0AF23243202B17DDC3F140035A
:1036D000029A9D400AF2124322FA03F32B4307EEAB
:1036E000903AB8EE677B0AF1FF3A8DED047B0598BE
:1036F000DDE904230127A0F1F873A5E7029AC3F1DD
:10370000200302FA03F3EAE70123A1EB0A0A10936C
:10371000BAF10103079343BF0023CAF1010A0793DB
:103720004FF0000ABBF1000F19DB079BCDF82CB05E
:103730005B4407934FF00008089B092B66D8052BC4
:10374000C4BF043B0893089BA3F10203CCBF002530
:103750000125032B66D8DFE803F0555709490023FC
:10376000AAEB0B0ACBF100080B93E5E701230993C1
:103770000A9B002B59DD06939946666A0022726007
:10378000042202F114009842716853D9204600F0D7
:1037900026FE636A30601B680493B9F10E0F00F2D5
:1037A000C280002D00F0BF809DED027BBBF1000FB9
:1037B0008DED0E7B40F3E6802B4A0BF00F0302EBFE
:1037C000C30393ED007B4FEA2B13DA0640F1D88058
:1037D000264A9DED0E5B92ED086B85EE066B8DED36
:1037E000026B03F00F03032220494AE001230993EF
:1037F0000A9B5B4403F1010906934B46012BB8BFBA
:103800000123BAE70023B2E70023F0E701250023F4
:10381000CDE908354FF0FF33069399460022122375
:103820000A92AAE701230993F4E701230693994634
:103830001A46F5E7013171605200A2E7AFF300804C
:1038400061436F63A787D23FB3C8608B288AC63FA6
:10385000FB799F501344D33F0000F07F5152000882
:103860004852000825520008E0520008B8520008EB
:10387000DE0704D591ED006B013227EE067B5B106D
:103880000831002BF4D19DED026B86EE077B8DEDA8
:10389000027B109B002B00F0A780B7EE006B9DED24
:1038A000027BB4EEC67BF1EE10FA40F19D80B9F1D7
:1038B000000F00F09980069B002B30DDB2EE046B08
:1038C00027EE067B8DED027B069D0BF1FF33013267
:1038D0009DED026BB1EE0C5B07EE902AB8EEE77B34
:1038E000A7EE065B8DED025B039ADDE90201A2F112
:1038F0005071002D7BD1B1EE047B36EE476B41EC6D
:10390000170BB4EEC76BF1EE10FA00F35382B1EE71
:10391000477BB4EEC76BF1EE10FA00F14982DDE9A6
:103920000E23CDE90223139B002BC0F21981BBF1BA
:103930000E0F00F31581C34B03EBCB0393ED006B2C
:103940000A9B002B80F2BA80B9F1000F00F3B68019
:1039500040F02D82B1EE047B26EE076B9DED027BDD
:10396000B4EEC76BF1EE10FA4D464F4680F204827A
:10397000049B049A5E1C312313700BF1010BFFE1D1
:10398000022231E72ED0CBF10003AE4A03F00F0143
:1039900002EBC10292ED007B9DED0E6B26EE077BE4
:1039A0008DED0C7BDDE90C12CDE90212A6491B114D
:1039B000002002223BB900283FF46BAFDDE90C0187
:1039C000CDE9020165E7DD0709D59DED0C6B91EDB1
:1039D000007B26EE077B8DED0C7B013201205B1016
:1039E0000831E7E7022254E75B464D4670E7954A07
:1039F00002EBC50212ED024B099A41EC170B5AB3C8
:103A0000B6EE003BB7EE002B049E83EE045BB2EEF5
:103A1000043B35EE477BFDEEC64B14EE902AB8EE24
:103A2000E45B303236EE456BB4EEC76BF1EE10FA64
:103A300006F8012B3BD432EE465BB4EEC75BF1EEE9
:103A400010FA72D4049AB21A95427FF768AF27EE43
:103A5000037B26EE036BDEE7049A24EE077B561900
:103A60001146B2EE043BFDEEC64B14EE902A303206
:103A700001F8012BB142B8EEE45B36EE456B1AD18A
:103A8000B6EE005B37EE054BB4EEC46BF1EE10FA08
:103A90004BDC35EE477BB4EEC76BF1EE10FA7FF5E9
:103AA0003EAF16F8012C302A06F1FF3101D09B46BB
:103AB0002AE00E46F5E726EE036BD4E79DED027B88
:103AC000B2EE044B049E87EE065BBDEEC55B15EEC1
:103AD000103A303306F8013B049BF31A9945B8EECF
:103AE000C53BA3EE467B33D137EE077BB4EEC67BF6
:103AF000F1EE10FA18DCB4EE467BF1EE10FA03D1C9
:103B000015EE103ADB070FD40199204600F09BFC1C
:103B10000023119A33700BF1010313601F9B002BDC
:103B20003FF45BAD1E6058E55B4616F8011C392971
:103B300006F1FF3206D10499914207D130220A7072
:103B400001330A46117801311170B0E71646ECE7EF
:103B500027EE047BB5EE407BF1EE10FAB3D1D3E74C
:103B6000099A002A00F08D80089A012A72DC002F41
:103B70006CD003F2334345465646079A01211A4456
:103B800020469A44079200F0FEFC0746002E0BDD0B
:103B9000079B002B08DDB342079AA8BF3346AAEB68
:103BA000030AF61AD31A0793B8F1000F1DD0099B28
:103BB000002B6AD08DB139462A46204600F082FD9E
:103BC000019A01460746204600F0E6FC01990C9058
:103BD000204600F038FC0C9B0193B8EB050204D0A2
:103BE0000199204600F06EFD01900121204600F071
:103BF000CAFC0B9B0546002B00F0CA811A46014601
:103C0000204600F05FFD089B012B054644DC029B2B
:103C1000002B3CD1039BC3F31303002B37D1039B31
:103C200023F000431B0D1B05002B33D0079B0133F2
:103C30000AF1010A07934FF001080B9B73BB0120A7
:103C400034E000BFE0520008B8520008129BC3F1F4
:103C5000360390E709F1FF35A845BFBF0B9BA5EBE5
:103C6000080843440B93B6BFA846A8EB05050025FA
:103C7000B9F1000FB9BFAAEB0906002356464B461F
:103C80007BE745465646099F80E74246A8E74FF046
:103C90000008D2E79846D0E74FF000082B6905EB03
:103CA0008303186900F021FCC0F12000079B184431
:103CB00010F01F0047D0C0F12003042B3BDD079B11
:103CC000C0F11C008244064403440793BAF1000F7C
:103CD00005DD52460199204600F042FD0190079B08
:103CE000002B05DD29461A46204600F039FD054621
:103CF000109B53B32946019800F086FD002824DA72
:103D000000230A220199204600F0B4FB099B019090
:103D10000BF1FF3B002B00F04281002339460A22C1
:103D2000204600F0A7FB069B002B07464BDC089BB8
:103D3000022B48DD11E0C9D0079A1C331A449A447B
:103D40001E441346C1E70346F6E7B9F1000F34DC21
:103D5000089B022B31DDCDF81890069B63B92946EC
:103D60000522204600F086FB01460546019800F03A
:103D70004BFD00283FF7FCAD0A9B049E6FEA030B46
:103D80004FF000092946204600F05DFB002F3FF46C
:103D9000BBAEB9F1000F05D0B94503D04946204666
:103DA00000F051FB3946204600F04DFBACE6002503
:103DB0002F46E1E79B462F46DAE5099BCDF81890A0
:103DC000002B00F0F380002E05DD394632462046F8
:103DD00000F0C6FC0746B8F1000F4CD079682046C9
:103DE00000F0FDFA3A6902320646920007F10C0132
:103DF0000C3000F0E9FA01223146204600F0B0FC18
:103E0000029BDDF810A003F00103B94607930746B3
:103E100029460198FFF70CFB4946064600F1300899
:103E2000019800F0F1FC3A4602902946204600F045
:103E300005FDC368024603BB01460990019800F0E6
:103E4000E3FC099A034611462046099300F0FBFA69
:103E5000099BA3B9089A92B9079A82B9B8F1390FA8
:103E600029D0029B002B01DD06F131080AF1010681
:103E70008AF8008086E73846C2E70123E3E7029A22
:103E8000002A04DB24D1089A12BB079A02BB002B3C
:103E9000ECDD01220199204600F062FC29460190E8
:103EA00000F0B2FC002803DCE0D118F0010FDDD0F7
:103EB000B8F1390FD8D139230AF101068AF8003058
:103EC00016F8013C392B06F1FF324CD0013351E09A
:103ED000002B0AF1010605DDB8F1390FEBD008F12E
:103EE0000108C5E7049B069A06F8018CF31A934271
:103EF00021D000230A220199204600F0BBFAB945DF
:103F000001904FF000034FF00A024946204605D1C8
:103F100000F0B0FA81460746B24679E700F0AAFA07
:103F20003946814600230A22204600F0A3FA0746BC
:103F3000F2E74FF0000901220199204600F010FC41
:103F40002946019000F060FC0028B9DC02D118F08D
:103F5000010FB5D116F8013C302B06F1FF327FF48A
:103F600011AF1646F6E7049B934205D1049A0BF174
:103F7000010B3123137005E71646A1E7164BFFF737
:103F800048BB1F9B002B7FF423AB144BFFF741BBB7
:103F9000089B012B7FF73BAEDDF82C804FE6069B9C
:103FA000002B03DC089B022B3FF7D7AE049E019841
:103FB0002946FFF73DFA00F1300806F8018B049B13
:103FC000069AF31A9A42B4DD00230A220199204688
:103FD00000F050FA0190EAE7245200084852000825
:103FE0008A892DE9F041054610070C4658D44B68E4
:103FF000002B05DC0B6C002B02DC0020BDE8F081FF
:10400000E66A002EF9D0002312F480522F68216A4C
:104010002B6032D0606DA3895A0705D56368C01A3A
:10402000636B0BB1236CC01A00230246E66A216A57
:104030002846B047431CA38906D129681D2948D8C2
:10404000294ACA40D60744D500226260D9042269B1
:10405000226004D5421C01D12B6803B96065616BF5
:104060002F600029C9D004F14403994202D02846A8
:1040700000F09EFC00206063C0E701232846B047A3
:10408000411CC8D12B68002BC5D01D2B01D0162B8D
:1040900001D12F60B1E7A38943F04003A381ADE7CD
:1040A0000F69002FA9D093070E6808BF4B690F60F6
:1040B00018BF0023A6EB07088B60B8F1000F9CDD4A
:1040C00043463A46216AA66A2846B047002806DCDD
:1040D000A38943F04003A3814FF0FF308EE70744EC
:1040E000A8EB0008E9E700BF0100402038B50B69E4
:1040F00005460C46DBB118B183690BB900F060F8D6
:104100000C4B9C4209D16C68B4F90C307BB1214650
:104110002846BDE83840FFF763BF074B9C4201D1FA
:10412000AC68F1E7054B9C4208BFEC68ECE7002067
:1041300038BD00BF78520008985200085852000855
:10414000002310B50446C0E90033836081814366D3
:10415000C281C0E904338361194608225C30FEF74E
:104160004DFC054B6362054BA362054BE362054BB7
:104170002462236310BD00BF9D4D0008BF4D0008A1
:10418000F74D00081B4E0008014900F085B800BF3C
:10419000ED40000870B54A1E682555430E4605F1EE
:1041A000740100F053FC044640B10021C0E9001640
:1041B0000C30A06005F16802FEF720FC204670BDBF
:1041C000836910B5044633BBC0E912330365124B53
:1041D000124A1B688262984204BF0123836100F087
:1041E0001FF86060204600F01BF8A060204600F039
:1041F00017F80022E06004216068FFF7A1FF0122A8
:104200000921A068FFF79CFF02221221E068FFF756
:1042100097FF0123A36110BD1052000889410008D7
:10422000F8B51B4B1E68B369074613B93046FFF754
:10423000C7FF4836D6E90134013B03D5336833B1B3
:104240003668F7E7B4F90C506DB16834F4E704212F
:104250003846FFF79FFF30600028F1D10C233B6008
:1042600004462046F8BD0B4B6566C4E90055A560C1
:10427000C4E90335C4E905550822294604F15C0068
:10428000FEF7BCFBC4E90D55C4E91255E9E700BFD0
:10429000105200080100FFFF2DE9F84380468946CF
:1042A00000F14804002614B93046BDE8F883D4E98B
:1042B0000175013F01D52468F5E7AB89012B07D9CA
:1042C000B5F90E30013303D029464046C8470643AE
:1042D0006835EEE7044B1B68186A044B002808BFDA
:1042E0001846F030704700BF0C000020700000201E
:1042F00070B50E46B1F90E10002996B014461D4651
:1043000007DA00232B60B3891A0610D44FF48063B8
:104310000EE06A4600F0A8FD0028F2DB019A02F4E4
:104320007042A2F500535A425A412A60EEE74023F8
:104330000020236016B070BD8B8973B59D070646BB
:104340000C4607D504F14703236023610123636111
:1043500002B070BD01AB6A46FFF7CAFF009905467F
:10436000304600F073FB48B9B4F90C309A05EFD42D
:1043700023F0030343F00203A381E3E70D4BB36291
:10438000A389206043F08003A381009B6361019BAC
:1043900020615BB1B4F90E10304600F077FD28B112
:1043A000A38923F0030343F00103A381A3891D43E1
:1043B000A581CDE789410008024B0146186800F04D
:1043C00045BB00BF0C00002010B5431E0A449142BB
:1043D00000D110BD11F8014B03F8014FF7E770B59C
:1043E000456A04460E463DB91020FFF7E5FF6062BE
:1043F000C0E901550560C560656AEB6883B1636A11
:10440000DB6853F82600B8B9012101FA06F56A1DE8
:104410009200204600F0BEFA60B1C0E901650EE0EE
:1044200021220421204600F0B5FA636AE860DB68C7
:10443000002BE4D1002070BD026843F82620002341
:10444000C0E90333F7E770B5446A06460D463CB948
:104450001020FFF7B1FF7062C0E901440460C4603E
:104460003DB1736A6A68DB6853F82210296043F82B
:10447000225070BD2DE9F0410D691F4606460C46DD
:1044800001F1140C0023DCF8000081B202FB017181
:104490000F0C000C02FB007089B2013301EB0041EC
:1044A0009D424FEA10474CF8041BECDCD7B1A368DF
:1044B000AB4212DC616830460131FFF790FF2269A0
:1044C000023204F10C01804692000C30FFF77CFFB1
:1044D00021463046FFF7B7FF444604EB850301351C
:1044E0005F6125612046BDE8F081020C120403469D
:1044F000B2B90304102013F07F4F04BF1B02083031
:1045000013F0704F04BF1B01043013F0404F04BF81
:104510009B000230002B06DB5B0003D501307047A7
:104520000020E8E720207047036813F007020146E7
:104530000BD0DA0723D4980749BF5B089B080120FA
:104540000B605CBF0B600220704798B2A8B91B0CCF
:10455000102013F0FF0F04BF1B0A08301A0704BF16
:104560001B0904309A0704BF9B080230DA0702D403
:104570005B0806D001300B6070471046E9E7002069
:1045800070472020704710B50C460121FFF727FF28
:1045900001224461026110BD2DE9F74F14460A69FA
:1045A00023699A42B8BF0B468846BCBFA0461C464A
:1045B000D8F81070D4F81090D8F80830D8F8041053
:1045C00007EB0906B342B8BF0131FFF708FF00F15E
:1045D000140505EB860E2B460022734516D304F115
:1045E000140208F1140102EB890301EB8707009321
:1045F000009B019293420CD8002E03DD5EF8043D2F
:10460000002B5DD0066103B0BDE8F08F43F8042BAA
:10461000E3E7B2F800B0BBF1000F23D08946AC4607
:104620004FF0000859F8044BDCF800A0A3B21FFAC1
:104630008AFA0BFB03A34FEA144ADCF80040434418
:104640004FEA14480BFB0A8404EB1344E2469BB286
:1046500043EA04434F454FEA14484AF8043B2BD839
:10466000CCF80480019BB3F802A00432BAF1000F29
:1046700020D02B688946A8464FF0000BB9F800C03F
:10468000B8F802400AFB0C445C44C4469BB243EABF
:1046900004434CF8043B59F8043BB8F804B01B0C35
:1046A0000AFB03B303EB14434F454FEA134B05D802
:1046B000C8F8043004359BE7D446B3E7E046DDE7AD
:1046C000013E99E72DE9F843154612F0030206462C
:1046D0000F4607D0013A214C002354F82220FFF75F
:1046E000C9FE0746AD1035D0746A3CB91020FFF7FB
:1046F00063FE7062C0E901440460C460D6F824809F
:10470000D8F808404CB940F271213046FFF73BFF22
:104710000023C8F80800044603604FF00008EB07C8
:104720000AD5394622463046FFF736FF39468146DC
:104730003046FFF788FE4F466D100BD0206838B921
:10474000224621463046FFF727FF2060C0F8008050
:104750000446E4E73846BDE8F88300BFA8530008E4
:104760002DE9F0470C464FEA621A236949680AEBC3
:104770000309A3680746164609F10105AB4232DB7F
:104780003846FFF72CFE0023804600F114011A463C
:1047900053452BDB20692AEAEA7A04F1140316F068
:1047A0001F0201EB8A0103EB800C25D0C2F1200E21
:1047B00000201E688A46964030434AF8040B53F89E
:1047C000040B9C4520FA0EF014D8486008B109F19A
:1047D0000205013D3846C8F810502146FFF733FE68
:1047E0004046BDE8F08701315B00C7E741F8232070
:1047F0000133CDE75146DCE7043953F8042B41F887
:10480000042F9C45F9D8E4E703690A699B1A30B57F
:104810000CD19200143014318418114454F8045D02
:1048200051F8042D954203D005D30123184630BD1D
:10483000A042F3D3FAE74FF0FF33F7E72DE9F04753
:104840000D460746114628461446FFF7DDFF061EB3
:1048500008D131463846FFF7C2FD0123C0E90436CE
:10486000BDE8F087A4BF23462C4638466168A6BF42
:104870001D4600260126FFF7B2FD2B69C66026699A
:1048800005F1140904F1140202EB860709EB830811
:1048900000F114054FF0000E52F804AB59F8044B28
:1048A0001EFA8AF1A3B2C91A230CC3EB1A4303EB15
:1048B000214389B24FEA234EC84541EA0343944657
:1048C00045F8043BE8D8BC4504D355F8043D83B112
:1048D0000661C5E75CF8041B1EFA81F31A1402EBAB
:1048E00011429BB243EA02434FEA224E45F8043B91
:1048F000E9E7013EE9E72DE9F7430E46012159ECCE
:10490000108B1546FFF76BFDC9F30A540746C9F330
:10491000130334BB0193B8F1000327D002A840F879
:10492000083DFFF701FE0099F0B1019AC0F12003A4
:1049300002FA03F30B43C2407B610192019BBB610E
:10494000002B14BF022101213961C4B1A4F2334408
:1049500004443460C0F135002860384603B0BDE837
:10496000F08343F48013D5E77961E7E701A8FFF707
:10497000DBFD019B7B61012139612030E5E707EB1D
:104980008103A0F2324030601869FFF7AEFDC0EB42
:104990004110E1E738B502FB01F4214600F056F87A
:1049A000054618B122460021FEF728F8284638BDF2
:1049B00038B50546002945D051F8043C0C1F002BA2
:1049C000B8BFE41800F096FA1F4A1368104633B9CE
:1049D000636014602846BDE8384000F08CBAA342FA
:1049E0000CD921686218934204BF1A685B6863603F
:1049F00004BF521822600460ECE713465A680AB1FB
:104A0000A242FAD919685818A0420BD12068014473
:104A1000581882421960DDD1106852685A6001440A
:104A20001960D7E702D90C232B60D3E7206821183F
:104A30008A4204BF11685268626004BF091821608D
:104A40005C60C7E738BD00BF0002002070B5CD1C18
:104A500025F0030508350C2D38BF0C25002D064622
:104A600001DBA94203D90C233360002070BD00F0A4
:104A700041FA214A1468214691B9204C23681BB998
:104A8000304600F07BF920602946304600F076F988
:104A9000431C24D10C233360304600F02CFAE4E7A9
:104AA0000B685B1B18D40B2B0FD90B60CD50CC18A7
:104AB000304600F020FA04F10B00231D20F007001F
:104AC000C31AD3D05A42E250D0E78C424B6816BF8B
:104AD000636013600C46EBE70C464968CCE7C41CE6
:104AE00024F00304A04205D0211A304600F046F914
:104AF0000130CFD02560DBE7000200200402002057
:104B00009368013B002B10B4936008DA9469A342C8
:104B100001DB0A2903D15DF8044BFEF7C9BB13681A
:104B2000581C1060197008465DF8044B7047F8B5C2
:104B300006460F461446D518AC4201D1002007E0C6
:104B40003A4614F8011B3046FFF7DAFF431CF3D155
:104B5000F8BD00002DE9F04F9DB00C4617460393B9
:104B6000064618B183690BB9FFF72AFB7B4B9C42C1
:104B700057D17468A38918075DD52369002B5AD0D3
:104B80000023099320238DF8293030238DF82A3013
:104B90004FF0010BB846454615F8013B0BB1252BEC
:104BA00054D1B8EB070A0BD053463A46214630465B
:104BB000FFF7BDFF013000F0C280099B5344099309
:104BC00098F80030002B00F0BA8000234FF0FF323D
:104BD000CDE90523049307938DF853301A93A84623
:104BE000052218F8011B5E48FBF7B2FC049B78BB5A
:104BF000D90644BF20228DF853201A0744BF2B2228
:104C00008DF853202A782A2A2AD0079AA84600200D
:104C10000A25414611F8013B303B092B69D960B3A5
:104C200024E0504B9C4201D1B468A3E74E4B9C4218
:104C300008BFF4689EE721463046FEF78BFB00284C
:104C40009ED04FF0FF301DB0BDE8F08FA846A2E720
:104C5000434A801A0BFA00F0184304904546BEE719
:104C6000039A111D12680391002A01DB079204E0E8
:104C7000524243F002030792049398F800302E2B1F
:104C80000ED198F801302A2B38D1039B1A1D1B68CE
:104C90000392002BB8BF4FF0FF3308F102080593D1
:104CA000324D98F8001003222846FBF751FC40B122
:104CB0004023401B03FA00F0049B034308F1010862
:104CC000049398F800102A488DF82810062208F15D
:104CD0000107FBF73DFC002837D0264B1BBB039B8D
:104CE000073323F0070308330393099B4B440993CD
:104CF00050E705FB0232012088468AE7002308F1CD
:104D00000108059319460A25404610F8012B303A50
:104D1000092A03D9002BC3D00591C1E705FB012166
:104D200001238046F0E703AB00932246124B04A90F
:104D30003046FDF7F1FEB0F1FF3F8146D5D1A389A2
:104D40005B063FF57EAF09987DE703AB00932246F3
:104D5000094B04A93046FEF781F9ECE778520008C8
:104D6000B45300089852000858520008BA5300087B
:104D7000BE530008192B00082F4B000838B5064C0D
:104D80000023054608462360FDF792FD431C02D12F
:104D9000236803B12B6038BDCC02002010B50C464F
:104DA000B1F90E1000F0A8F80028ABBF636DA3891D
:104DB0001B1823F48053ACBF6365A38110BD2DE99C
:104DC000F0411F468B89DB0505460C46164605D586
:104DD00002230022B1F90E1000F068F8A389B4F99B
:104DE0000E1023F48053A38132463B462846BDE88B
:104DF000F04100F017B810B50C46B1F90E1000F0F4
:104E000055F8431CA38915BF606523F4805343F410
:104E10008053A38118BFA38110BDB1F90E1000F01B
:104E200013B8000038B5074C054608461146002265
:104E300022601A46FDF72DFD431C02D1236803B101
:104E40002B6038BDCC02002038B5064C0023054647
:104E500008462360FDF74AFD431C02D1236803B1D5
:104E60002B6038BDCC02002038B5074C0023054626
:104E7000084611462360FDF73CFD431C02D1236820
:104E800003B12B6038BD00BFCC02002038B5064C02
:104E90000023054608462360FDF730FD431C02D180
:104EA000236803B12B6038BDCC02002038B5074C15
:104EB000054608461146002222601A46FDF720FDED
:104EC000431C02D1236803B12B6038BDCC02002003
:104ED00082B001B901A942B14BB113780B601278CD
:104EE000101C18BF012002B070471046FBE76FF09E
:104EF0000100F8E77047704738B5074C054608468B
:104F00001146002222601A46FDF7B5FC431C02D16F
:104F1000236803B12B6038BDCC02002049B1FF2AC1
:104F200085BF8A2303600A704FF0FF3098BF0120CD
:104F30007047084670470000F8B500BFF8BC08BCD1
:104F40009E467047F8B500BFF8BC08BC9E46704747
:104F50000000000000000000010203040607080929
:104F600000000000010203040D0A204D505520638B
:104F7000686970203120726573657465642073758B
:104F8000636365737366756C6C7920210D00000096
:104F90000D0A204D505520636869702031207265DC
:104FA000736574206661696C656420210D000000E2
:104FB0000D0A204D505520636869702032207265BB
:104FC0007365746564207375636365737366756C6C
:104FD0006C7920210D0000000D0A204D50552063F2
:104FE0006869702032207265736574206661696C2F
:104FF000656420210D0000000D0A204D50552073DE
:10500000616D706C65206469766964652072617495
:105010006520636F6E66696775726564207375637A
:105020006365737366756C6C7920210D0000000058
:105030000D0A204D50552073616D706C65206469B8
:1050400076696465207261746520636F6E66696756
:1050500075726174696F6E206661696C6564202188
:105060000D0000000D0A204D5055206469676974D9
:10507000616C206C6F7720706173732066696C744B
:10508000657220636F6E66696775726564207375FB
:10509000636365737366756C6C7920210D00000085
:1050A0000D0A204D5055206469676974616C206C4D
:1050B0006F7720706173732066696C74657220630A
:1050C0006F6E66696775726174696F6E206661697B
:1050D0006C656420210D00000D0A204D505520679D
:1050E00079726F73636F706520636F6E6669677541
:1050F000726564207375636365737366756C6C7930
:1051000020210D000D0A204D5055206779726F73D4
:10511000636F706520636F6E66696775726174692D
:105120006F6E206661696C656420210D00000000CF
:105130000D0A204D505520616363656C65726F6D7B
:105140006574657220636F6E666967757265642049
:105150007375636365737366756C6C7920210D00DC
:105160000D0A204D505520616363656C65726F6D4B
:105170006574657220636F6E6669677572617469C4
:105180006F6E206661696C656420210D000000006F
:105190000A0D2057686F2061726520796F75203F76
:1051A000200A0D000A0D204D792063686970206186
:1051B000646472657373206973203D202564200A3E
:1051C0000D0000000D0A2D2D2D2D57686F20616DEB
:1051D00020492E2E2E2D2D2D2D2D2D2D2D5B204FAA
:1051E0004B205D000D0A2D2D2D6E57686F20616DCF
:1051F00020492E2E2E5B204E4F4B205D2D2D2D0055
:105200000D0A25663B25663B25663B2566000000AA
:1052100010000020494E4600696E66004E414E0067
:105220006E616E0030003031323334353637383904
:105230004142434445460030313233343536373805
:105240003961626364656600496E66696E69747986
:10525000004E614E00000000000000000000000051
:10526000000000000000000000000000000000003E
:10527000000000000000000000000000000000002E
:10528000000000000000000000000000000000001E
:10529000000000000000000000000000000000000E
:1052A00000000000000000000000000000000000FE
:1052B00000000000000000000080E03779C3414397
:1052C000176E05B5B5B89346F5F93FE9034F384D6C
:1052D000321D30F94877825A3CBF737FDD4F157518
:1052E000000000000000F03F00000000000024402B
:1052F00000000000000059400000000000408F4006
:10530000000000000088C34000000000006AF84070
:105310000000000080842E4100000000D012634194
:105320000000000084D797410000000065CDCD410A
:10533000000000205FA00242000000E876483742EB
:10534000000000A2941A6D42000040E59C30A24289
:105350000000901EC4BCD64200003426F56B0C43FE
:105360000080E03779C3414300A0D88557347643A5
:1053700000C84E676DC1AB43003D9160E458E14306
:10538000408CB5781DAF154450EFE2D6E41A4B447B
:1053900092D54D06CFF08044F64AE1C7022DB544C0
:1053A000B49DD9794378EA44050000001900000053
:1053B0007D000000232D302B2000686C4C006566BA
:1053C00067454647004300504F534958002E0000A0
:1053D00020202020202020202028282828282020A5
:1053E00020202020202020202020202020202020BD
:1053F0008810101010101010101010101010101035
:105400000404040404040404040410101010101014
:1054100010414141414141010101010101010101ED
:105420000101010101010101010101101010101021
:1054300010424242424242020202020202020202BE
:1054400002020202020202020202021010101020E6
:10545000000000000000000000000000000000004C
:10546000000000000000000000000000000000003C
:10547000000000000000000000000000000000002C
:10548000000000000000000000000000000000001C
:10549000000000000000000000000000000000000C
:1054A00000000000000000000000000000000000FC
:1054B00000000000000000000000000000000000EC
:1054C00000000000000000000000000000000000DC
:0854D000A0ADFF7F0100000008
:0454D80025020008A1
:0454DC0001020008C1
:1054E00001000000100000000024F4001000002063
:1054F0000000000078520008985200085852000836
:10550000000000000000000000000000000000009B
:10551000000000000000000000000000000000008B
:10552000000000000000000000000000000000007B
:10553000000000000000000000000000000000006B
:10554000000000000000000000000000000000005B
:105550004300000000000000000000000000000008
:10556000000000000000000000000000000000003B
:1055700043000000000000000000000000000000E8
:10558000000000000000000000000000000000001B
:1055900043000000000000000000000000000000C8
:1055A00000000000000000000000000000000000FB
:1055B00043000000000000000000000000000000A8
:1055C00000000000000000000000000000000000DB
:1055D0004300000000000000000000000000000088
:1055E00000000000000000000000000000000000BB
:1055F0004300000000000000000000000000000068
:10560000000000000000000000000000000000009A
:105610004300000000000000000000000000000047
:10562000000000000000000000000000000000007A
:105630001D4F0008D14E000800000000CF530008A5
:10564000CD530008B9530008B9530008B9530008F6
:10565000B9530008B9530008B9530008B9530008FA
:10566000B9530008B9530008FFFFFFFFFFFFFFFF1A
:10567000FFFFFFFFFFFF00000100415343494900C6
:10568000000000000000000000000000000000001A
:1056900000000000000000000000415343494900A1
:1056A00000000000000000000000000000000000FA
:0C56B000000000000000000000000000EE
:040000050800295571
:00000001FF
